{"abi":[{"type":"function","name":"readAndIncrement","inputs":[{"name":"l2StorageProxy","type":"address","internalType":"address"},{"name":"l1Counter","type":"address","internalType":"address"}],"outputs":[{"name":"storedValue","type":"uint256","internalType":"uint256"},{"name":"counterValue","type":"uint256","internalType":"uint256"}],"stateMutability":"nonpayable"}],"bytecode":{"object":"0x6080604052348015600e575f5ffd5b5061059d8061001c5f395ff3fe608060405234801561000f575f5ffd5b5060043610610029575f3560e01c80639519240f1461002d575b5f5ffd5b6100476004803603810190610042919061034d565b61005e565b6040516100559291906103a3565b60405180910390f35b5f5f5f5f8573ffffffffffffffffffffffffffffffffffffffff166040516024016040516020818303038152906040527f3fa4f245000000000000000000000000000000000000000000000000000000007bffffffffffffffffffffffffffffffffffffffffffffffffffffffff19166020820180517bffffffffffffffffffffffffffffffffffffffffffffffffffffffff8381831617835250505050604051610109919061041c565b5f604051808303815f865af19150503d805f8114610142576040519150601f19603f3d011682016040523d82523d5f602084013e610147565b606091505b50915091508161018c576040517f08c379a00000000000000000000000000000000000000000000000000000000081526004016101839061048c565b60405180910390fd5b808060200190518101906101a091906104d4565b93505f5f8673ffffffffffffffffffffffffffffffffffffffff166040516024016040516020818303038152906040527fd09de08a000000000000000000000000000000000000000000000000000000007bffffffffffffffffffffffffffffffffffffffffffffffffffffffff19166020820180517bffffffffffffffffffffffffffffffffffffffffffffffffffffffff838183161783525050505060405161024b919061041c565b5f604051808303815f865af19150503d805f8114610284576040519150601f19603f3d011682016040523d82523d5f602084013e610289565b606091505b5091509150816102ce576040517f08c379a00000000000000000000000000000000000000000000000000000000081526004016102c590610549565b60405180910390fd5b808060200190518101906102e291906104d4565b9450505050509250929050565b5f5ffd5b5f73ffffffffffffffffffffffffffffffffffffffff82169050919050565b5f61031c826102f3565b9050919050565b61032c81610312565b8114610336575f5ffd5b50565b5f8135905061034781610323565b92915050565b5f5f60408385031215610363576103626102ef565b5b5f61037085828601610339565b925050602061038185828601610339565b9150509250929050565b5f819050919050565b61039d8161038b565b82525050565b5f6040820190506103b65f830185610394565b6103c36020830184610394565b9392505050565b5f81519050919050565b5f81905092915050565b8281835e5f83830152505050565b5f6103f6826103ca565b61040081856103d4565b93506104108185602086016103de565b80840191505092915050565b5f61042782846103ec565b915081905092915050565b5f82825260208201905092915050565b7f726561642066726f6d204c322073746f72616765206661696c656400000000005f82015250565b5f610476601b83610432565b915061048182610442565b602082019050919050565b5f6020820190508181035f8301526104a38161046a565b9050919050565b6104b38161038b565b81146104bd575f5ffd5b50565b5f815190506104ce816104aa565b92915050565b5f602082840312156104e9576104e86102ef565b5b5f6104f6848285016104c0565b91505092915050565b7f4c3120636f756e74657220696e6372656d656e74206661696c656400000000005f82015250565b5f610533601b83610432565b915061053e826104ff565b602082019050919050565b5f6020820190508181035f83015261056081610527565b905091905056fea2646970667358221220b6e84e49633b54fd4e723fddf0afd7467823a55dfc5cb6649795de1b76a2c5c264736f6c634300081c0033","linkReferences":{}},"methodIdentifiers":{"readAndIncrement(address,address)":"9519240f"},"id":7}