{"abi":[{"type":"constructor","inputs":[{"name":"_amm","type":"address","internalType":"address"},{"name":"_bridge","type":"address","internalType":"address"},{"name":"_tokenA","type":"address","internalType":"address"},{"name":"_tokenB","type":"address","internalType":"address"}],"stateMutability":"nonpayable"},{"type":"function","name":"amm","inputs":[],"outputs":[{"name":"","type":"address","internalType":"address"}],"stateMutability":"view"},{"type":"function","name":"bridge","inputs":[],"outputs":[{"name":"","type":"address","internalType":"address"}],"stateMutability":"view"},{"type":"function","name":"swapAndBridgeBack","inputs":[{"name":"l1TokenIn","type":"address","internalType":"address"},{"name":"recipient","type":"address","internalType":"address"}],"outputs":[{"name":"amountOut","type":"uint256","internalType":"uint256"}],"stateMutability":"nonpayable"},{"type":"function","name":"tokenA","inputs":[],"outputs":[{"name":"","type":"address","internalType":"address"}],"stateMutability":"view"},{"type":"function","name":"tokenB","inputs":[],"outputs":[{"name":"","type":"address","internalType":"address"}],"stateMutability":"view"}],"bytecode":{"object":"0x608060405234801561000f575f5ffd5b50604051610bf8380380610bf883398181016040528101906100319190610197565b835f5f6101000a81548173ffffffffffffffffffffffffffffffffffffffff021916908373ffffffffffffffffffffffffffffffffffffffff1602179055508260015f6101000a81548173ffffffffffffffffffffffffffffffffffffffff021916908373ffffffffffffffffffffffffffffffffffffffff1602179055508160025f6101000a81548173ffffffffffffffffffffffffffffffffffffffff021916908373ffffffffffffffffffffffffffffffffffffffff1602179055508060035f6101000a81548173ffffffffffffffffffffffffffffffffffffffff021916908373ffffffffffffffffffffffffffffffffffffffff160217905550505050506101fb565b5f5ffd5b5f73ffffffffffffffffffffffffffffffffffffffff82169050919050565b5f6101668261013d565b9050919050565b6101768161015c565b8114610180575f5ffd5b50565b5f815190506101918161016d565b92915050565b5f5f5f5f608085870312156101af576101ae610139565b5b5f6101bc87828801610183565b94505060206101cd87828801610183565b93505060406101de87828801610183565b92505060606101ef87828801610183565b91505092959194509250565b6109f0806102085f395ff3fe608060405234801561000f575f5ffd5b5060043610610055575f3560e01c80630fc63d10146100595780632a9439451461007757806351ade937146100955780635f64b55b146100c5578063e78cea92146100e3575b5f5ffd5b610061610101565b60405161006e919061072b565b60405180910390f35b61007f610126565b60405161008c919061072b565b60405180910390f35b6100af60048036038101906100aa9190610772565b61014a565b6040516100bc91906107c8565b60405180910390f35b6100cd6106a2565b6040516100da919061072b565b60405180910390f35b6100eb6106c7565b6040516100f8919061072b565b60405180910390f35b60025f9054906101000a900473ffffffffffffffffffffffffffffffffffffffff1681565b5f5f9054906101000a900473ffffffffffffffffffffffffffffffffffffffff1681565b5f5f5f60025f9054906101000a900473ffffffffffffffffffffffffffffffffffffffff1673ffffffffffffffffffffffffffffffffffffffff166370a08231306040518263ffffffff1660e01b81526004016101a7919061072b565b602060405180830381865afa1580156101c2573d5f5f3e3d5ffd5b505050506040513d601f19601f820116820180604052508101906101e6919061080b565b11156102155760025f9054906101000a900473ffffffffffffffffffffffffffffffffffffffff16905061031a565b5f60035f9054906101000a900473ffffffffffffffffffffffffffffffffffffffff1673ffffffffffffffffffffffffffffffffffffffff166370a08231306040518263ffffffff1660e01b8152600401610270919061072b565b602060405180830381865afa15801561028b573d5f5f3e3d5ffd5b505050506040513d601f19601f820116820180604052508101906102af919061080b565b11156102de5760035f9054906101000a900473ffffffffffffffffffffffffffffffffffffffff169050610319565b6040517f08c379a000000000000000000000000000000000000000000000000000000000815260040161031090610890565b60405180910390fd5b5b5f8173ffffffffffffffffffffffffffffffffffffffff166370a08231306040518263ffffffff1660e01b8152600401610354919061072b565b602060405180830381865afa15801561036f573d5f5f3e3d5ffd5b505050506040513d601f19601f82011682018060405250810190610393919061080b565b90508173ffffffffffffffffffffffffffffffffffffffff1663095ea7b35f5f9054906101000a900473ffffffffffffffffffffffffffffffffffffffff16836040518363ffffffff1660e01b81526004016103f09291906108ae565b6020604051808303815f875af115801561040c573d5f5f3e3d5ffd5b505050506040513d601f19601f82011682018060405250810190610430919061090a565b505f5f9054906101000a900473ffffffffffffffffffffffffffffffffffffffff1673ffffffffffffffffffffffffffffffffffffffff1663d004f0f783836040518363ffffffff1660e01b815260040161048c9291906108ae565b6020604051808303815f875af11580156104a8573d5f5f3e3d5ffd5b505050506040513d601f19601f820116820180604052508101906104cc919061080b565b92505f60025f9054906101000a900473ffffffffffffffffffffffffffffffffffffffff1673ffffffffffffffffffffffffffffffffffffffff168373ffffffffffffffffffffffffffffffffffffffff161461054a5760025f9054906101000a900473ffffffffffffffffffffffffffffffffffffffff1661056d565b60035f9054906101000a900473ffffffffffffffffffffffffffffffffffffffff165b90508073ffffffffffffffffffffffffffffffffffffffff1663095ea7b360015f9054906101000a900473ffffffffffffffffffffffffffffffffffffffff16866040518363ffffffff1660e01b81526004016105cb9291906108ae565b6020604051808303815f875af11580156105e7573d5f5f3e3d5ffd5b505050506040513d601f19601f8201168201806040525081019061060b919061090a565b5060015f9054906101000a900473ffffffffffffffffffffffffffffffffffffffff1673ffffffffffffffffffffffffffffffffffffffff166333b15aad82865f896040518563ffffffff1660e01b815260040161066c9493929190610977565b5f604051808303815f87803b158015610683575f5ffd5b505af1158015610695573d5f5f3e3d5ffd5b5050505050505092915050565b60035f9054906101000a900473ffffffffffffffffffffffffffffffffffffffff1681565b60015f9054906101000a900473ffffffffffffffffffffffffffffffffffffffff1681565b5f73ffffffffffffffffffffffffffffffffffffffff82169050919050565b5f610715826106ec565b9050919050565b6107258161070b565b82525050565b5f60208201905061073e5f83018461071c565b92915050565b5f5ffd5b6107518161070b565b811461075b575f5ffd5b50565b5f8135905061076c81610748565b92915050565b5f5f6040838503121561078857610787610744565b5b5f6107958582860161075e565b92505060206107a68582860161075e565b9150509250929050565b5f819050919050565b6107c2816107b0565b82525050565b5f6020820190506107db5f8301846107b9565b92915050565b6107ea816107b0565b81146107f4575f5ffd5b50565b5f81519050610805816107e1565b92915050565b5f602082840312156108205761081f610744565b5b5f61082d848285016107f7565b91505092915050565b5f82825260208201905092915050565b7f6e6f20746f6b656e7320746f20737761700000000000000000000000000000005f82015250565b5f61087a601183610836565b915061088582610846565b602082019050919050565b5f6020820190508181035f8301526108a78161086e565b9050919050565b5f6040820190506108c15f83018561071c565b6108ce60208301846107b9565b9392505050565b5f8115159050919050565b6108e9816108d5565b81146108f3575f5ffd5b50565b5f81519050610904816108e0565b92915050565b5f6020828403121561091f5761091e610744565b5b5f61092c848285016108f6565b91505092915050565b5f819050919050565b5f819050919050565b5f61096161095c61095784610935565b61093e565b6107b0565b9050919050565b61097181610947565b82525050565b5f60808201905061098a5f83018761071c565b61099760208301866107b9565b6109a46040830185610968565b6109b1606083018461071c565b9594505050505056fea264697066735822122046d77fb968125ff634254685a67219c28f4b346e62e2d620be350a2c9750777464736f6c634300081c0033","linkReferences":{}},"methodIdentifiers":{"amm()":"2a943945","bridge()":"e78cea92","swapAndBridgeBack(address,address)":"51ade937","tokenA()":"0fc63d10","tokenB()":"5f64b55b"},"id":8}