{"abi":[{"type":"function","name":"bridgeThenCallProxy","inputs":[{"name":"token","type":"address","internalType":"address"},{"name":"bridgeAmount","type":"uint256","internalType":"uint256"},{"name":"bridge","type":"address","internalType":"address"},{"name":"rollupId","type":"uint256","internalType":"uint256"},{"name":"bridgeDest","type":"address","internalType":"address"},{"name":"proxy","type":"address","internalType":"address"},{"name":"proxyCalldata","type":"bytes","internalType":"bytes"}],"outputs":[],"stateMutability":"nonpayable"}],"bytecode":{"object":"0x6080604052348015600e575f5ffd5b506106368061001c5f395ff3fe608060405234801561000f575f5ffd5b5060043610610029575f3560e01c8063a4986e791461002d575b5f5ffd5b6100476004803603810190610042919061035a565b610049565b005b8773ffffffffffffffffffffffffffffffffffffffff166323b872dd33308a6040518463ffffffff1660e01b815260040161008693929190610435565b6020604051808303815f875af11580156100a2573d5f5f3e3d5ffd5b505050506040513d601f19601f820116820180604052508101906100c6919061049f565b508773ffffffffffffffffffffffffffffffffffffffff1663095ea7b387896040518363ffffffff1660e01b81526004016101029291906104ca565b6020604051808303815f875af115801561011e573d5f5f3e3d5ffd5b505050506040513d601f19601f82011682018060405250810190610142919061049f565b508573ffffffffffffffffffffffffffffffffffffffff166333b15aad898988886040518563ffffffff1660e01b815260040161018294939291906104f1565b5f604051808303815f87803b158015610199575f5ffd5b505af11580156101ab573d5f5f3e3d5ffd5b505050505f8373ffffffffffffffffffffffffffffffffffffffff1683836040516101d7929190610570565b5f604051808303815f865af19150503d805f8114610210576040519150601f19603f3d011682016040523d82523d5f602084013e610215565b606091505b5050905080610259576040517f08c379a0000000000000000000000000000000000000000000000000000000008152600401610250906105e2565b60405180910390fd5b505050505050505050565b5f5ffd5b5f5ffd5b5f73ffffffffffffffffffffffffffffffffffffffff82169050919050565b5f6102958261026c565b9050919050565b6102a58161028b565b81146102af575f5ffd5b50565b5f813590506102c08161029c565b92915050565b5f819050919050565b6102d8816102c6565b81146102e2575f5ffd5b50565b5f813590506102f3816102cf565b92915050565b5f5ffd5b5f5ffd5b5f5ffd5b5f5f83601f84011261031a576103196102f9565b5b8235905067ffffffffffffffff811115610337576103366102fd565b5b60208301915083600182028301111561035357610352610301565b5b9250929050565b5f5f5f5f5f5f5f5f60e0898b03121561037657610375610264565b5b5f6103838b828c016102b2565b98505060206103948b828c016102e5565b97505060406103a58b828c016102b2565b96505060606103b68b828c016102e5565b95505060806103c78b828c016102b2565b94505060a06103d88b828c016102b2565b93505060c089013567ffffffffffffffff8111156103f9576103f8610268565b5b6104058b828c01610305565b92509250509295985092959890939650565b6104208161028b565b82525050565b61042f816102c6565b82525050565b5f6060820190506104485f830186610417565b6104556020830185610417565b6104626040830184610426565b949350505050565b5f8115159050919050565b61047e8161046a565b8114610488575f5ffd5b50565b5f8151905061049981610475565b92915050565b5f602082840312156104b4576104b3610264565b5b5f6104c18482850161048b565b91505092915050565b5f6040820190506104dd5f830185610417565b6104ea6020830184610426565b9392505050565b5f6080820190506105045f830187610417565b6105116020830186610426565b61051e6040830185610426565b61052b6060830184610417565b95945050505050565b5f81905092915050565b828183375f83830152505050565b5f6105578385610534565b935061056483858461053e565b82840190509392505050565b5f61057c82848661054c565b91508190509392505050565b5f82825260208201905092915050565b7f70726f78792063616c6c206661696c65640000000000000000000000000000005f82015250565b5f6105cc601183610588565b91506105d782610598565b602082019050919050565b5f6020820190508181035f8301526105f9816105c0565b905091905056fea2646970667358221220f180bef32175b912ff0732ec8e33778d06115661cfe196ce231615bc5144519f64736f6c634300081c0033","linkReferences":{}},"methodIdentifiers":{"bridgeThenCallProxy(address,uint256,address,uint256,address,address,bytes)":"a4986e79"},"id":0}