{"abi":[{"type":"function","name":"counter","inputs":[],"outputs":[{"name":"","type":"uint256","internalType":"uint256"}],"stateMutability":"view"},{"type":"function","name":"getIncrements","inputs":[],"outputs":[{"name":"","type":"tuple[]","internalType":"struct Counter.Increment[]","components":[{"name":"sender","type":"address","internalType":"address"},{"name":"value","type":"uint256","internalType":"uint256"}]}],"stateMutability":"view"},{"type":"function","name":"increment","inputs":[],"outputs":[{"name":"","type":"uint256","internalType":"uint256"}],"stateMutability":"nonpayable"},{"type":"function","name":"increments","inputs":[{"name":"","type":"uint256","internalType":"uint256"}],"outputs":[{"name":"sender","type":"address","internalType":"address"},{"name":"value","type":"uint256","internalType":"uint256"}],"stateMutability":"view"}],"bytecode":{"object":"0x6080604052348015600e575f5ffd5b506105558061001c5f395ff3fe608060405234801561000f575f5ffd5b506004361061004a575f3560e01c80631cb77d061461004e57806361bc221a1461007f578063d09de08a1461009d578063f7f27dde146100bb575b5f5ffd5b610068600480360381019061006391906102df565b6100d9565b604051610076929190610358565b60405180910390f35b610087610127565b604051610094919061037f565b60405180910390f35b6100a561012c565b6040516100b2919061037f565b60405180910390f35b6100c36101ee565b6040516100d0919061048b565b60405180910390f35b600181815481106100e8575f80fd5b905f5260205f2090600202015f91509050805f015f9054906101000a900473ffffffffffffffffffffffffffffffffffffffff16908060010154905082565b5f5481565b5f5f5f81548092919061013e906104d8565b9190505550600160405180604001604052803373ffffffffffffffffffffffffffffffffffffffff1681526020015f54815250908060018154018082558091505060019003905f5260205f2090600202015f909190919091505f820151815f015f6101000a81548173ffffffffffffffffffffffffffffffffffffffff021916908373ffffffffffffffffffffffffffffffffffffffff1602179055506020820151816001015550505f54905090565b60606001805480602002602001604051908101604052809291908181526020015f905b8282101561029f578382905f5260205f2090600202016040518060400160405290815f82015f9054906101000a900473ffffffffffffffffffffffffffffffffffffffff1673ffffffffffffffffffffffffffffffffffffffff1673ffffffffffffffffffffffffffffffffffffffff16815260200160018201548152505081526020019060010190610211565b50505050905090565b5f5ffd5b5f819050919050565b6102be816102ac565b81146102c8575f5ffd5b50565b5f813590506102d9816102b5565b92915050565b5f602082840312156102f4576102f36102a8565b5b5f610301848285016102cb565b91505092915050565b5f73ffffffffffffffffffffffffffffffffffffffff82169050919050565b5f6103338261030a565b9050919050565b61034381610329565b82525050565b610352816102ac565b82525050565b5f60408201905061036b5f83018561033a565b6103786020830184610349565b9392505050565b5f6020820190506103925f830184610349565b92915050565b5f81519050919050565b5f82825260208201905092915050565b5f819050602082019050919050565b6103ca81610329565b82525050565b6103d9816102ac565b82525050565b604082015f8201516103f35f8501826103c1565b50602082015161040660208501826103d0565b50505050565b5f61041783836103df565b60408301905092915050565b5f602082019050919050565b5f61043982610398565b61044381856103a2565b935061044e836103b2565b805f5b8381101561047e578151610465888261040c565b975061047083610423565b925050600181019050610451565b5085935050505092915050565b5f6020820190508181035f8301526104a3818461042f565b905092915050565b7f4e487b71000000000000000000000000000000000000000000000000000000005f52601160045260245ffd5b5f6104e2826102ac565b91507fffffffffffffffffffffffffffffffffffffffffffffffffffffffffffffffff8203610514576105136104ab565b5b60018201905091905056fea2646970667358221220c0cacbf5a332bf734a48f7dba088f933dda4563bcf7c58547fe2b2a04fad444964736f6c634300081c0033","linkReferences":{}},"methodIdentifiers":{"counter()":"61bc221a","getIncrements()":"f7f27dde","increment()":"d09de08a","increments(uint256)":"1cb77d06"},"id":5}