{"abi":[{"type":"function","name":"executeAndStore","inputs":[{"name":"l1CounterProxy","type":"address","internalType":"address"},{"name":"storageContract","type":"address","internalType":"address"}],"outputs":[{"name":"result","type":"uint256","internalType":"uint256"}],"stateMutability":"nonpayable"}],"bytecode":{"object":"0x6080604052348015600e575f5ffd5b506105598061001c5f395ff3fe608060405234801561000f575f5ffd5b5060043610610029575f3560e01c8063d8afce561461002d575b5f5ffd5b610047600480360381019061004291906102ba565b61005d565b6040516100549190610310565b60405180910390f35b5f5f5f8473ffffffffffffffffffffffffffffffffffffffff166040516024016040516020818303038152906040527fd09de08a000000000000000000000000000000000000000000000000000000007bffffffffffffffffffffffffffffffffffffffffffffffffffffffff19166020820180517bffffffffffffffffffffffffffffffffffffffffffffffffffffffff8381831617835250505050604051610107919061037b565b5f604051808303815f865af19150503d805f8114610140576040519150601f19603f3d011682016040523d82523d5f602084013e610145565b606091505b50915091508161018a576040517f08c379a0000000000000000000000000000000000000000000000000000000008152600401610181906103eb565b60405180910390fd5b8080602001905181019061019e9190610433565b92508373ffffffffffffffffffffffffffffffffffffffff16636057361d846040518263ffffffff1660e01b81526004016101d99190610310565b5f604051808303815f87803b1580156101f0575f5ffd5b505af1158015610202573d5f5f3e3d5ffd5b505050505f600284610214919061048b565b03610254576040517f08c379a000000000000000000000000000000000000000000000000000000000815260040161024b90610505565b60405180910390fd5b505092915050565b5f5ffd5b5f73ffffffffffffffffffffffffffffffffffffffff82169050919050565b5f61028982610260565b9050919050565b6102998161027f565b81146102a3575f5ffd5b50565b5f813590506102b481610290565b92915050565b5f5f604083850312156102d0576102cf61025c565b5b5f6102dd858286016102a6565b92505060206102ee858286016102a6565b9150509250929050565b5f819050919050565b61030a816102f8565b82525050565b5f6020820190506103235f830184610301565b92915050565b5f81519050919050565b5f81905092915050565b8281835e5f83830152505050565b5f61035582610329565b61035f8185610333565b935061036f81856020860161033d565b80840191505092915050565b5f610386828461034b565b915081905092915050565b5f82825260208201905092915050565b7f4c3120636f756e7465722063616c6c206661696c6564000000000000000000005f82015250565b5f6103d5601683610391565b91506103e0826103a1565b602082019050919050565b5f6020820190508181035f830152610402816103c9565b9050919050565b610412816102f8565b811461041c575f5ffd5b50565b5f8151905061042d81610409565b92915050565b5f602082840312156104485761044761025c565b5b5f6104558482850161041f565b91505092915050565b7f4e487b71000000000000000000000000000000000000000000000000000000005f52601260045260245ffd5b5f610495826102f8565b91506104a0836102f8565b9250826104b0576104af61045e565b5b828206905092915050565b7f726573756c74206973206576656e2c20726576657274696e67000000000000005f82015250565b5f6104ef601983610391565b91506104fa826104bb565b602082019050919050565b5f6020820190508181035f83015261051c816104e3565b905091905056fea2646970667358221220bc7c35641655699b634ed7af095b6f3f862625fc27141831c9d964a6dcf75d9a64736f6c634300081c0033","linkReferences":{}},"methodIdentifiers":{"executeAndStore(address,address)":"d8afce56"},"id":10}