{"abi":[{"type":"constructor","inputs":[{"name":"_localAMM","type":"address","internalType":"address"},{"name":"_bridge","type":"address","internalType":"address"},{"name":"_tokenA","type":"address","internalType":"address"},{"name":"_tokenB","type":"address","internalType":"address"},{"name":"_remoteRollupId","type":"uint256","internalType":"uint256"}],"stateMutability":"nonpayable"},{"type":"function","name":"aggregatedSwap","inputs":[{"name":"tokenIn","type":"address","internalType":"address"},{"name":"totalAmount","type":"uint256","internalType":"uint256"},{"name":"localAmount","type":"uint256","internalType":"uint256"}],"outputs":[{"name":"totalOut","type":"uint256","internalType":"uint256"}],"stateMutability":"nonpayable"},{"type":"function","name":"bridge","inputs":[],"outputs":[{"name":"","type":"address","internalType":"address"}],"stateMutability":"view"},{"type":"function","name":"l2Executor","inputs":[],"outputs":[{"name":"","type":"address","internalType":"address"}],"stateMutability":"view"},{"type":"function","name":"l2ExecutorProxy","inputs":[],"outputs":[{"name":"","type":"address","internalType":"address"}],"stateMutability":"view"},{"type":"function","name":"localAMM","inputs":[],"outputs":[{"name":"","type":"address","internalType":"address"}],"stateMutability":"view"},{"type":"function","name":"owner","inputs":[],"outputs":[{"name":"","type":"address","internalType":"address"}],"stateMutability":"view"},{"type":"function","name":"remoteRollupId","inputs":[],"outputs":[{"name":"","type":"uint256","internalType":"uint256"}],"stateMutability":"view"},{"type":"function","name":"setL2Executor","inputs":[{"name":"_executor","type":"address","internalType":"address"},{"name":"_proxy","type":"address","internalType":"address"}],"outputs":[],"stateMutability":"nonpayable"},{"type":"function","name":"tokenA","inputs":[],"outputs":[{"name":"","type":"address","internalType":"address"}],"stateMutability":"view"},{"type":"function","name":"tokenB","inputs":[],"outputs":[{"name":"","type":"address","internalType":"address"}],"stateMutability":"view"}],"bytecode":{"object":"0x608060405234801561000f575f5ffd5b506040516114a93803806114a983398181016040528101906100319190610212565b845f5f6101000a81548173ffffffffffffffffffffffffffffffffffffffff021916908373ffffffffffffffffffffffffffffffffffffffff1602179055508360015f6101000a81548173ffffffffffffffffffffffffffffffffffffffff021916908373ffffffffffffffffffffffffffffffffffffffff1602179055508260025f6101000a81548173ffffffffffffffffffffffffffffffffffffffff021916908373ffffffffffffffffffffffffffffffffffffffff1602179055508160035f6101000a81548173ffffffffffffffffffffffffffffffffffffffff021916908373ffffffffffffffffffffffffffffffffffffffff160217905550806004819055503360075f6101000a81548173ffffffffffffffffffffffffffffffffffffffff021916908373ffffffffffffffffffffffffffffffffffffffff1602179055505050505050610289565b5f5ffd5b5f73ffffffffffffffffffffffffffffffffffffffff82169050919050565b5f6101ae82610185565b9050919050565b6101be816101a4565b81146101c8575f5ffd5b50565b5f815190506101d9816101b5565b92915050565b5f819050919050565b6101f1816101df565b81146101fb575f5ffd5b50565b5f8151905061020c816101e8565b92915050565b5f5f5f5f5f60a0868803121561022b5761022a610181565b5b5f610238888289016101cb565b9550506020610249888289016101cb565b945050604061025a888289016101cb565b935050606061026b888289016101cb565b925050608061027c888289016101fe565b9150509295509295909350565b611213806102965f395ff3fe608060405234801561000f575f5ffd5b506004361061009c575f3560e01c8063909a2c4c11610064578063909a2c4c146101345780639fc7a93a14610164578063e2ffecf214610182578063e78cea92146101a0578063f017cb29146101be5761009c565b80630fc63d10146100a0578063139fe8bd146100be5780635f64b55b146100da5780638da5cb5b146100f8578063900fb67114610116575b5f5ffd5b6100a86101dc565b6040516100b59190610c35565b60405180910390f35b6100d860048036038101906100d39190610c7c565b610201565b005b6100e2610314565b6040516100ef9190610c35565b60405180910390f35b610100610339565b60405161010d9190610c35565b60405180910390f35b61011e61035e565b60405161012b9190610c35565b60405180910390f35b61014e60048036038101906101499190610ced565b610383565b60405161015b9190610d4c565b60405180910390f35b61016c610b82565b6040516101799190610c35565b60405180910390f35b61018a610ba7565b6040516101979190610c35565b60405180910390f35b6101a8610bcb565b6040516101b59190610c35565b60405180910390f35b6101c6610bf0565b6040516101d39190610d4c565b60405180910390f35b60025f9054906101000a900473ffffffffffffffffffffffffffffffffffffffff1681565b60075f9054906101000a900473ffffffffffffffffffffffffffffffffffffffff1673ffffffffffffffffffffffffffffffffffffffff163373ffffffffffffffffffffffffffffffffffffffff1614610290576040517f08c379a000000000000000000000000000000000000000000000000000000000815260040161028790610dbf565b60405180910390fd5b8160055f6101000a81548173ffffffffffffffffffffffffffffffffffffffff021916908373ffffffffffffffffffffffffffffffffffffffff1602179055508060065f6101000a81548173ffffffffffffffffffffffffffffffffffffffff021916908373ffffffffffffffffffffffffffffffffffffffff1602179055505050565b60035f9054906101000a900473ffffffffffffffffffffffffffffffffffffffff1681565b60075f9054906101000a900473ffffffffffffffffffffffffffffffffffffffff1681565b60055f9054906101000a900473ffffffffffffffffffffffffffffffffffffffff1681565b5f828211156103c7576040517f08c379a00000000000000000000000000000000000000000000000000000000081526004016103be90610e27565b60405180910390fd5b60025f9054906101000a900473ffffffffffffffffffffffffffffffffffffffff1673ffffffffffffffffffffffffffffffffffffffff168473ffffffffffffffffffffffffffffffffffffffff16148061046e575060035f9054906101000a900473ffffffffffffffffffffffffffffffffffffffff1673ffffffffffffffffffffffffffffffffffffffff168473ffffffffffffffffffffffffffffffffffffffff16145b6104ad576040517f08c379a00000000000000000000000000000000000000000000000000000000081526004016104a490610e8f565b60405180910390fd5b5f82846104ba9190610eda565b90508473ffffffffffffffffffffffffffffffffffffffff166323b872dd3330876040518463ffffffff1660e01b81526004016104f993929190610f0d565b6020604051808303815f875af1158015610515573d5f5f3e3d5ffd5b505050506040513d601f19601f820116820180604052508101906105399190610f77565b505f60025f9054906101000a900473ffffffffffffffffffffffffffffffffffffffff1673ffffffffffffffffffffffffffffffffffffffff168673ffffffffffffffffffffffffffffffffffffffff16146105b65760025f9054906101000a900473ffffffffffffffffffffffffffffffffffffffff166105d9565b60035f9054906101000a900473ffffffffffffffffffffffffffffffffffffffff165b90505f5f90505f851115610721578673ffffffffffffffffffffffffffffffffffffffff1663095ea7b35f5f9054906101000a900473ffffffffffffffffffffffffffffffffffffffff16876040518363ffffffff1660e01b8152600401610642929190610fa2565b6020604051808303815f875af115801561065e573d5f5f3e3d5ffd5b505050506040513d601f19601f820116820180604052508101906106829190610f77565b505f5f9054906101000a900473ffffffffffffffffffffffffffffffffffffffff1673ffffffffffffffffffffffffffffffffffffffff1663d004f0f788876040518363ffffffff1660e01b81526004016106de929190610fa2565b6020604051808303815f875af11580156106fa573d5f5f3e3d5ffd5b505050506040513d601f19601f8201168201806040525081019061071e9190610fdd565b90505b5f5f90505f841115610aab578773ffffffffffffffffffffffffffffffffffffffff1663095ea7b360015f9054906101000a900473ffffffffffffffffffffffffffffffffffffffff16866040518363ffffffff1660e01b8152600401610789929190610fa2565b6020604051808303815f875af11580156107a5573d5f5f3e3d5ffd5b505050506040513d601f19601f820116820180604052508101906107c99190610f77565b5060015f9054906101000a900473ffffffffffffffffffffffffffffffffffffffff1673ffffffffffffffffffffffffffffffffffffffff166333b15aad898660045460055f9054906101000a900473ffffffffffffffffffffffffffffffffffffffff166040518563ffffffff1660e01b815260040161084d9493929190611008565b5f604051808303815f87803b158015610864575f5ffd5b505af1158015610876573d5f5f3e3d5ffd5b505050505f8373ffffffffffffffffffffffffffffffffffffffff166370a08231306040518263ffffffff1660e01b81526004016108b49190610c35565b602060405180830381865afa1580156108cf573d5f5f3e3d5ffd5b505050506040513d601f19601f820116820180604052508101906108f39190610fdd565b90505f5f60065f9054906101000a900473ffffffffffffffffffffffffffffffffffffffff1673ffffffffffffffffffffffffffffffffffffffff168b3060405160240161094292919061104b565b6040516020818303038152906040526351ade93760e01b6020820180517bffffffffffffffffffffffffffffffffffffffffffffffffffffffff838183161783525050505060405161099491906110c4565b5f604051808303815f865af19150503d805f81146109cd576040519150601f19603f3d011682016040523d82523d5f602084013e6109d2565b606091505b509150915081610a17576040517f08c379a0000000000000000000000000000000000000000000000000000000008152600401610a0e90611124565b60405180910390fd5b84838773ffffffffffffffffffffffffffffffffffffffff166370a08231306040518263ffffffff1660e01b8152600401610a529190610c35565b602060405180830381865afa158015610a6d573d5f5f3e3d5ffd5b505050506040513d601f19601f82011682018060405250810190610a919190610fdd565b610a9b9190610eda565b610aa59190610eda565b93505050505b8082610ab79190611142565b94505f8511610afb576040517f08c379a0000000000000000000000000000000000000000000000000000000008152600401610af2906111bf565b60405180910390fd5b8273ffffffffffffffffffffffffffffffffffffffff1663a9059cbb33876040518363ffffffff1660e01b8152600401610b36929190610fa2565b6020604051808303815f875af1158015610b52573d5f5f3e3d5ffd5b505050506040513d601f19601f82011682018060405250810190610b769190610f77565b50505050509392505050565b60065f9054906101000a900473ffffffffffffffffffffffffffffffffffffffff1681565b5f5f9054906101000a900473ffffffffffffffffffffffffffffffffffffffff1681565b60015f9054906101000a900473ffffffffffffffffffffffffffffffffffffffff1681565b60045481565b5f73ffffffffffffffffffffffffffffffffffffffff82169050919050565b5f610c1f82610bf6565b9050919050565b610c2f81610c15565b82525050565b5f602082019050610c485f830184610c26565b92915050565b5f5ffd5b610c5b81610c15565b8114610c65575f5ffd5b50565b5f81359050610c7681610c52565b92915050565b5f5f60408385031215610c9257610c91610c4e565b5b5f610c9f85828601610c68565b9250506020610cb085828601610c68565b9150509250929050565b5f819050919050565b610ccc81610cba565b8114610cd6575f5ffd5b50565b5f81359050610ce781610cc3565b92915050565b5f5f5f60608486031215610d0457610d03610c4e565b5b5f610d1186828701610c68565b9350506020610d2286828701610cd9565b9250506040610d3386828701610cd9565b9150509250925092565b610d4681610cba565b82525050565b5f602082019050610d5f5f830184610d3d565b92915050565b5f82825260208201905092915050565b7f6f6e6c79206f776e6572000000000000000000000000000000000000000000005f82015250565b5f610da9600a83610d65565b9150610db482610d75565b602082019050919050565b5f6020820190508181035f830152610dd681610d9d565b9050919050565b7f6c6f63616c203e20746f74616c000000000000000000000000000000000000005f82015250565b5f610e11600d83610d65565b9150610e1c82610ddd565b602082019050919050565b5f6020820190508181035f830152610e3e81610e05565b9050919050565b7f696e76616c696420746f6b656e000000000000000000000000000000000000005f82015250565b5f610e79600d83610d65565b9150610e8482610e45565b602082019050919050565b5f6020820190508181035f830152610ea681610e6d565b9050919050565b7f4e487b71000000000000000000000000000000000000000000000000000000005f52601160045260245ffd5b5f610ee482610cba565b9150610eef83610cba565b9250828203905081811115610f0757610f06610ead565b5b92915050565b5f606082019050610f205f830186610c26565b610f2d6020830185610c26565b610f3a6040830184610d3d565b949350505050565b5f8115159050919050565b610f5681610f42565b8114610f60575f5ffd5b50565b5f81519050610f7181610f4d565b92915050565b5f60208284031215610f8c57610f8b610c4e565b5b5f610f9984828501610f63565b91505092915050565b5f604082019050610fb55f830185610c26565b610fc26020830184610d3d565b9392505050565b5f81519050610fd781610cc3565b92915050565b5f60208284031215610ff257610ff1610c4e565b5b5f610fff84828501610fc9565b91505092915050565b5f60808201905061101b5f830187610c26565b6110286020830186610d3d565b6110356040830185610d3d565b6110426060830184610c26565b95945050505050565b5f60408201905061105e5f830185610c26565b61106b6020830184610c26565b9392505050565b5f81519050919050565b5f81905092915050565b8281835e5f83830152505050565b5f61109e82611072565b6110a8818561107c565b93506110b8818560208601611086565b80840191505092915050565b5f6110cf8284611094565b915081905092915050565b7f72656d6f74652073776170206661696c656400000000000000000000000000005f82015250565b5f61110e601283610d65565b9150611119826110da565b602082019050919050565b5f6020820190508181035f83015261113b81611102565b9050919050565b5f61114c82610cba565b915061115783610cba565b925082820190508082111561116f5761116e610ead565b5b92915050565b7f7a65726f206f75747075740000000000000000000000000000000000000000005f82015250565b5f6111a9600b83610d65565b91506111b482611175565b602082019050919050565b5f6020820190508181035f8301526111d68161119d565b905091905056fea2646970667358221220c999315ed3990313303d7c97b25fd226d40f04f2445fe65b1c103a3d989032d664736f6c634300081c0033","linkReferences":{}},"methodIdentifiers":{"aggregatedSwap(address,uint256,uint256)":"909a2c4c","bridge()":"e78cea92","l2Executor()":"900fb671","l2ExecutorProxy()":"9fc7a93a","localAMM()":"e2ffecf2","owner()":"8da5cb5b","remoteRollupId()":"f017cb29","setL2Executor(address,address)":"139fe8bd","tokenA()":"0fc63d10","tokenB()":"5f64b55b"},"id":6}