{"abi":[{"type":"function","name":"wrapAndBridge","inputs":[{"name":"token","type":"address","internalType":"address"},{"name":"amount","type":"uint256","internalType":"uint256"},{"name":"bridge","type":"address","internalType":"address"},{"name":"rollupId","type":"uint256","internalType":"uint256"},{"name":"dest","type":"address","internalType":"address"}],"outputs":[],"stateMutability":"nonpayable"}],"bytecode":{"object":"0x6080604052348015600e575f5ffd5b506104118061001c5f395ff3fe608060405234801561000f575f5ffd5b5060043610610029575f3560e01c8063c790f03b1461002d575b5f5ffd5b61004760048036038101906100429190610247565b610049565b005b8473ffffffffffffffffffffffffffffffffffffffff166323b872dd3330876040518463ffffffff1660e01b8152600401610086939291906102dc565b6020604051808303815f875af11580156100a2573d5f5f3e3d5ffd5b505050506040513d601f19601f820116820180604052508101906100c69190610346565b508473ffffffffffffffffffffffffffffffffffffffff1663095ea7b384866040518363ffffffff1660e01b8152600401610102929190610371565b6020604051808303815f875af115801561011e573d5f5f3e3d5ffd5b505050506040513d601f19601f820116820180604052508101906101429190610346565b508273ffffffffffffffffffffffffffffffffffffffff166333b15aad868685856040518563ffffffff1660e01b81526004016101829493929190610398565b5f604051808303815f87803b158015610199575f5ffd5b505af11580156101ab573d5f5f3e3d5ffd5b505050505050505050565b5f5ffd5b5f73ffffffffffffffffffffffffffffffffffffffff82169050919050565b5f6101e3826101ba565b9050919050565b6101f3816101d9565b81146101fd575f5ffd5b50565b5f8135905061020e816101ea565b92915050565b5f819050919050565b61022681610214565b8114610230575f5ffd5b50565b5f813590506102418161021d565b92915050565b5f5f5f5f5f60a086880312156102605761025f6101b6565b5b5f61026d88828901610200565b955050602061027e88828901610233565b945050604061028f88828901610200565b93505060606102a088828901610233565b92505060806102b188828901610200565b9150509295509295909350565b6102c7816101d9565b82525050565b6102d681610214565b82525050565b5f6060820190506102ef5f8301866102be565b6102fc60208301856102be565b61030960408301846102cd565b949350505050565b5f8115159050919050565b61032581610311565b811461032f575f5ffd5b50565b5f815190506103408161031c565b92915050565b5f6020828403121561035b5761035a6101b6565b5b5f61036884828501610332565b91505092915050565b5f6040820190506103845f8301856102be565b61039160208301846102cd565b9392505050565b5f6080820190506103ab5f8301876102be565b6103b860208301866102cd565b6103c560408301856102cd565b6103d260608301846102be565b9594505050505056fea2646970667358221220200e335dc198c2e591519e459222d5c2f61e94a5aa90fc17d4ee567816b5ff8a64736f6c634300081c0033","linkReferences":{}},"methodIdentifiers":{"wrapAndBridge(address,uint256,address,uint256,address)":"c790f03b"},"id":1}