{"abi":[{"type":"function","name":"callCounterTwice","inputs":[{"name":"counter","type":"address","internalType":"address"}],"outputs":[{"name":"first","type":"uint256","internalType":"uint256"},{"name":"second","type":"uint256","internalType":"uint256"}],"stateMutability":"nonpayable"}],"bytecode":{"object":"0x6080604052348015600e575f5ffd5b506105888061001c5f395ff3fe608060405234801561000f575f5ffd5b5060043610610029575f3560e01c8063ede8a03c1461002d575b5f5ffd5b6100476004803603810190610042919061034b565b61005e565b60405161005592919061038e565b60405180910390f35b5f5f5f5f8473ffffffffffffffffffffffffffffffffffffffff166040516024016040516020818303038152906040527fd09de08a000000000000000000000000000000000000000000000000000000007bffffffffffffffffffffffffffffffffffffffffffffffffffffffff19166020820180517bffffffffffffffffffffffffffffffffffffffffffffffffffffffff83818316178352505050506040516101099190610407565b5f604051808303815f865af19150503d805f8114610142576040519150601f19603f3d011682016040523d82523d5f602084013e610147565b606091505b50915091508161018c576040517f08c379a000000000000000000000000000000000000000000000000000000000815260040161018390610477565b60405180910390fd5b808060200190518101906101a091906104bf565b93505f5f8673ffffffffffffffffffffffffffffffffffffffff166040516024016040516020818303038152906040527fd09de08a000000000000000000000000000000000000000000000000000000007bffffffffffffffffffffffffffffffffffffffffffffffffffffffff19166020820180517bffffffffffffffffffffffffffffffffffffffffffffffffffffffff838183161783525050505060405161024b9190610407565b5f604051808303815f865af19150503d805f8114610284576040519150601f19603f3d011682016040523d82523d5f602084013e610289565b606091505b5091509150816102ce576040517f08c379a00000000000000000000000000000000000000000000000000000000081526004016102c590610534565b60405180910390fd5b808060200190518101906102e291906104bf565b945050505050915091565b5f5ffd5b5f73ffffffffffffffffffffffffffffffffffffffff82169050919050565b5f61031a826102f1565b9050919050565b61032a81610310565b8114610334575f5ffd5b50565b5f8135905061034581610321565b92915050565b5f602082840312156103605761035f6102ed565b5b5f61036d84828501610337565b91505092915050565b5f819050919050565b61038881610376565b82525050565b5f6040820190506103a15f83018561037f565b6103ae602083018461037f565b9392505050565b5f81519050919050565b5f81905092915050565b8281835e5f83830152505050565b5f6103e1826103b5565b6103eb81856103bf565b93506103fb8185602086016103c9565b80840191505092915050565b5f61041282846103d7565b915081905092915050565b5f82825260208201905092915050565b7f66697273742063616c6c206661696c65640000000000000000000000000000005f82015250565b5f61046160118361041d565b915061046c8261042d565b602082019050919050565b5f6020820190508181035f83015261048e81610455565b9050919050565b61049e81610376565b81146104a8575f5ffd5b50565b5f815190506104b981610495565b92915050565b5f602082840312156104d4576104d36102ed565b5b5f6104e1848285016104ab565b91505092915050565b7f7365636f6e642063616c6c206661696c656400000000000000000000000000005f82015250565b5f61051e60128361041d565b9150610529826104ea565b602082019050919050565b5f6020820190508181035f83015261054b81610512565b905091905056fea264697066735822122012d6c4a39fb4a897b63e476ef1c75661f079ebb563be4a26eb59020a82ad9a4764736f6c634300081c0033","linkReferences":{}},"methodIdentifiers":{"callCounterTwice(address)":"ede8a03c"},"id":2}