{"abi":[{"type":"function","name":"callBothConditional","inputs":[{"name":"counterA","type":"address","internalType":"address"},{"name":"counterB","type":"address","internalType":"address"},{"name":"revertThreshold","type":"uint256","internalType":"uint256"}],"outputs":[{"name":"a","type":"uint256","internalType":"uint256"},{"name":"b","type":"uint256","internalType":"uint256"}],"stateMutability":"nonpayable"}],"bytecode":{"object":"0x6080604052348015600e575f5ffd5b506106948061001c5f395ff3fe608060405234801561000f575f5ffd5b5060043610610029575f3560e01c806332cf97791461002d575b5f5ffd5b610047600480360381019061004291906103c3565b61005e565b604051610055929190610422565b60405180910390f35b5f5f5f5f8673ffffffffffffffffffffffffffffffffffffffff166040516024016040516020818303038152906040527fd09de08a000000000000000000000000000000000000000000000000000000007bffffffffffffffffffffffffffffffffffffffffffffffffffffffff19166020820180517bffffffffffffffffffffffffffffffffffffffffffffffffffffffff8381831617835250505050604051610109919061049b565b5f604051808303815f865af19150503d805f8114610142576040519150601f19603f3d011682016040523d82523d5f602084013e610147565b606091505b50915091508161018c576040517f08c379a00000000000000000000000000000000000000000000000000000000081526004016101839061050b565b60405180910390fd5b808060200190518101906101a0919061053d565b93505f5f8773ffffffffffffffffffffffffffffffffffffffff166040516024016040516020818303038152906040527fd09de08a000000000000000000000000000000000000000000000000000000007bffffffffffffffffffffffffffffffffffffffffffffffffffffffff19166020820180517bffffffffffffffffffffffffffffffffffffffffffffffffffffffff838183161783525050505060405161024b919061049b565b5f604051808303815f865af19150503d805f8114610284576040519150601f19603f3d011682016040523d82523d5f602084013e610289565b606091505b5091509150816102ce576040517f08c379a00000000000000000000000000000000000000000000000000000000081526004016102c5906105b2565b60405180910390fd5b808060200190518101906102e2919061053d565b9450868510610326576040517f08c379a000000000000000000000000000000000000000000000000000000000815260040161031d90610640565b60405180910390fd5b50505050935093915050565b5f5ffd5b5f73ffffffffffffffffffffffffffffffffffffffff82169050919050565b5f61035f82610336565b9050919050565b61036f81610355565b8114610379575f5ffd5b50565b5f8135905061038a81610366565b92915050565b5f819050919050565b6103a281610390565b81146103ac575f5ffd5b50565b5f813590506103bd81610399565b92915050565b5f5f5f606084860312156103da576103d9610332565b5b5f6103e78682870161037c565b93505060206103f88682870161037c565b9250506040610409868287016103af565b9150509250925092565b61041c81610390565b82525050565b5f6040820190506104355f830185610413565b6104426020830184610413565b9392505050565b5f81519050919050565b5f81905092915050565b8281835e5f83830152505050565b5f61047582610449565b61047f8185610453565b935061048f81856020860161045d565b80840191505092915050565b5f6104a6828461046b565b915081905092915050565b5f82825260208201905092915050565b7f66697273742063616c6c206661696c65640000000000000000000000000000005f82015250565b5f6104f56011836104b1565b9150610500826104c1565b602082019050919050565b5f6020820190508181035f830152610522816104e9565b9050919050565b5f8151905061053781610399565b92915050565b5f6020828403121561055257610551610332565b5b5f61055f84828501610529565b91505092915050565b7f7365636f6e642063616c6c206661696c656400000000000000000000000000005f82015250565b5f61059c6012836104b1565b91506105a782610568565b602082019050919050565b5f6020820190508181035f8301526105c981610590565b9050919050565b7f636f6e646974696f6e616c207265766572743a20636f756e74657242203e3d205f8201527f7468726573686f6c640000000000000000000000000000000000000000000000602082015250565b5f61062a6029836104b1565b9150610635826105d0565b604082019050919050565b5f6020820190508181035f8301526106578161061e565b905091905056fea26469706673582212200e1d4adbdc1ea540a7759a26829d618cf1c7f41c88fce11b763b1ba1bb8e00d764736f6c634300081c0033","linkReferences":{}},"methodIdentifiers":{"callBothConditional(address,address,uint256)":"32cf9779"},"id":4}