{"abi":[{"type":"constructor","inputs":[{"name":"_tokenA","type":"address","internalType":"address"},{"name":"_tokenB","type":"address","internalType":"address"}],"stateMutability":"nonpayable"},{"type":"function","name":"addLiquidity","inputs":[{"name":"amountA","type":"uint256","internalType":"uint256"},{"name":"amountB","type":"uint256","internalType":"uint256"}],"outputs":[],"stateMutability":"nonpayable"},{"type":"function","name":"getAmountOut","inputs":[{"name":"tokenIn","type":"address","internalType":"address"},{"name":"amountIn","type":"uint256","internalType":"uint256"}],"outputs":[{"name":"","type":"uint256","internalType":"uint256"}],"stateMutability":"view"},{"type":"function","name":"liquidityProvider","inputs":[],"outputs":[{"name":"","type":"address","internalType":"address"}],"stateMutability":"view"},{"type":"function","name":"poolName","inputs":[],"outputs":[{"name":"","type":"string","internalType":"string"}],"stateMutability":"view"},{"type":"function","name":"price","inputs":[],"outputs":[{"name":"","type":"uint256","internalType":"uint256"}],"stateMutability":"view"},{"type":"function","name":"removeLiquidity","inputs":[],"outputs":[],"stateMutability":"nonpayable"},{"type":"function","name":"reserveA","inputs":[],"outputs":[{"name":"","type":"uint256","internalType":"uint256"}],"stateMutability":"view"},{"type":"function","name":"reserveB","inputs":[],"outputs":[{"name":"","type":"uint256","internalType":"uint256"}],"stateMutability":"view"},{"type":"function","name":"swap","inputs":[{"name":"tokenIn","type":"address","internalType":"address"},{"name":"amountIn","type":"uint256","internalType":"uint256"}],"outputs":[{"name":"amountOut","type":"uint256","internalType":"uint256"}],"stateMutability":"nonpayable"},{"type":"function","name":"tokenA","inputs":[],"outputs":[{"name":"","type":"address","internalType":"contract IERC20"}],"stateMutability":"view"},{"type":"function","name":"tokenB","inputs":[],"outputs":[{"name":"","type":"address","internalType":"contract IERC20"}],"stateMutability":"view"},{"type":"event","name":"LiquidityAdded","inputs":[{"name":"provider","type":"address","indexed":true,"internalType":"address"},{"name":"amountA","type":"uint256","indexed":false,"internalType":"uint256"},{"name":"amountB","type":"uint256","indexed":false,"internalType":"uint256"}],"anonymous":false},{"type":"event","name":"LiquidityRemoved","inputs":[{"name":"provider","type":"address","indexed":true,"internalType":"address"},{"name":"amountA","type":"uint256","indexed":false,"internalType":"uint256"},{"name":"amountB","type":"uint256","indexed":false,"internalType":"uint256"}],"anonymous":false},{"type":"event","name":"Swap","inputs":[{"name":"user","type":"address","indexed":true,"internalType":"address"},{"name":"tokenIn","type":"address","indexed":false,"internalType":"address"},{"name":"amountIn","type":"uint256","indexed":false,"internalType":"uint256"},{"name":"tokenOut","type":"address","indexed":false,"internalType":"address"},{"name":"amountOut","type":"uint256","indexed":false,"internalType":"uint256"}],"anonymous":false}],"bytecode":{"object":"0x60c060405234801561000f575f5ffd5b50604051611db3380380611db383398181016040528101906100319190610219565b8173ffffffffffffffffffffffffffffffffffffffff1660808173ffffffffffffffffffffffffffffffffffffffff16815250508073ffffffffffffffffffffffffffffffffffffffff1660a08173ffffffffffffffffffffffffffffffffffffffff16815250508173ffffffffffffffffffffffffffffffffffffffff166395d89b416040518163ffffffff1660e01b81526004015f60405180830381865afa1580156100e1573d5f5f3e3d5ffd5b505050506040513d5f823e3d601f19601f820116820180604052508101906101099190610393565b8173ffffffffffffffffffffffffffffffffffffffff166395d89b416040518163ffffffff1660e01b81526004015f60405180830381865afa158015610151573d5f5f3e3d5ffd5b505050506040513d5f823e3d601f19601f820116820180604052508101906101799190610393565b60405160200161018a929190610468565b6040516020818303038152906040525f90816101a6919061069c565b50505061076b565b5f604051905090565b5f5ffd5b5f5ffd5b5f73ffffffffffffffffffffffffffffffffffffffff82169050919050565b5f6101e8826101bf565b9050919050565b6101f8816101de565b8114610202575f5ffd5b50565b5f81519050610213816101ef565b92915050565b5f5f6040838503121561022f5761022e6101b7565b5b5f61023c85828601610205565b925050602061024d85828601610205565b9150509250929050565b5f5ffd5b5f5ffd5b5f601f19601f8301169050919050565b7f4e487b71000000000000000000000000000000000000000000000000000000005f52604160045260245ffd5b6102a58261025f565b810181811067ffffffffffffffff821117156102c4576102c361026f565b5b80604052505050565b5f6102d66101ae565b90506102e2828261029c565b919050565b5f67ffffffffffffffff8211156103015761030061026f565b5b61030a8261025f565b9050602081019050919050565b8281835e5f83830152505050565b5f610337610332846102e7565b6102cd565b9050828152602081018484840111156103535761035261025b565b5b61035e848285610317565b509392505050565b5f82601f83011261037a57610379610257565b5b815161038a848260208601610325565b91505092915050565b5f602082840312156103a8576103a76101b7565b5b5f82015167ffffffffffffffff8111156103c5576103c46101bb565b5b6103d184828501610366565b91505092915050565b5f81519050919050565b5f81905092915050565b5f6103f8826103da565b61040281856103e4565b9350610412818560208601610317565b80840191505092915050565b7f2f000000000000000000000000000000000000000000000000000000000000005f82015250565b5f6104526001836103e4565b915061045d8261041e565b600182019050919050565b5f61047382856103ee565b915061047e82610446565b915061048a82846103ee565b91508190509392505050565b7f4e487b71000000000000000000000000000000000000000000000000000000005f52602260045260245ffd5b5f60028204905060018216806104da57607f821691505b6020821081036104ed576104ec610496565b5b50919050565b5f819050815f5260205f209050919050565b5f6020601f8301049050919050565b5f82821b905092915050565b5f6008830261054f7fffffffffffffffffffffffffffffffffffffffffffffffffffffffffffffffff82610514565b6105598683610514565b95508019841693508086168417925050509392505050565b5f819050919050565b5f819050919050565b5f61059d61059861059384610571565b61057a565b610571565b9050919050565b5f819050919050565b6105b683610583565b6105ca6105c2826105a4565b848454610520565b825550505050565b5f5f905090565b6105e16105d2565b6105ec8184846105ad565b505050565b5b8181101561060f576106045f826105d9565b6001810190506105f2565b5050565b601f82111561065457610625816104f3565b61062e84610505565b8101602085101561063d578190505b61065161064985610505565b8301826105f1565b50505b505050565b5f82821c905092915050565b5f6106745f1984600802610659565b1980831691505092915050565b5f61068c8383610665565b9150826002028217905092915050565b6106a5826103da565b67ffffffffffffffff8111156106be576106bd61026f565b5b6106c882546104c3565b6106d3828285610613565b5f60209050601f831160018114610704575f84156106f2578287015190505b6106fc8582610681565b865550610763565b601f198416610712866104f3565b5f5b8281101561073957848901518255600182019150602085019450602081019050610714565b868310156107565784890151610752601f891682610665565b8355505b6001600288020188555050505b505050505050565b60805160a0516115c56107ee5f395f8181610254015281816103bd015281816105980152818161078b0152818161099501528181610bcb0152610d9e01525f818161020501528181610321015281816104fa015281816107360152818161081b0152818161094001528181610a2501528181610c9c0152610d7801526115c55ff3fe608060405234801561000f575f5ffd5b50600436106100a7575f3560e01c80639cd441da1161006f5780639cd441da1461012d578063a035b1fe14610149578063ca706bcf14610167578063d004f0f714610197578063dc5fa6c5146101c7578063f3466dfa146101e5576100a7565b80630fc63d10146100ab57806319e36f3b146100c95780635b8bec55146100e75780635f64b55b1461010557806367b9a28614610123575b5f5ffd5b6100b3610203565b6040516100c09190610eec565b60405180910390f35b6100d1610227565b6040516100de9190610f1d565b60405180910390f35b6100ef61022d565b6040516100fc9190610f56565b60405180910390f35b61010d610252565b60405161011a9190610eec565b60405180910390f35b61012b610276565b005b61014760048036038101906101429190610f9d565b6104ab565b005b6101516106f8565b60405161015e9190610f1d565b60405180910390f35b610181600480360381019061017c9190611005565b610733565b60405161018e9190610f1d565b60405180910390f35b6101b160048036038101906101ac9190611005565b6108fb565b6040516101be9190610f1d565b60405180910390f35b6101cf610de1565b6040516101dc9190610f1d565b60405180910390f35b6101ed610de7565b6040516101fa91906110b3565b60405180910390f35b7f000000000000000000000000000000000000000000000000000000000000000081565b60025481565b60035f9054906101000a900473ffffffffffffffffffffffffffffffffffffffff1681565b7f000000000000000000000000000000000000000000000000000000000000000081565b60035f9054906101000a900473ffffffffffffffffffffffffffffffffffffffff1673ffffffffffffffffffffffffffffffffffffffff163373ffffffffffffffffffffffffffffffffffffffff1614610305576040517f08c379a00000000000000000000000000000000000000000000000000000000081526004016102fc9061111d565b60405180910390fd5b5f60015490505f60025490505f6001819055505f6002819055507f000000000000000000000000000000000000000000000000000000000000000073ffffffffffffffffffffffffffffffffffffffff1663a9059cbb33846040518363ffffffff1660e01b815260040161037a92919061113b565b6020604051808303815f875af1158015610396573d5f5f3e3d5ffd5b505050506040513d601f19601f820116820180604052508101906103ba9190611197565b507f000000000000000000000000000000000000000000000000000000000000000073ffffffffffffffffffffffffffffffffffffffff1663a9059cbb33836040518363ffffffff1660e01b815260040161041692919061113b565b6020604051808303815f875af1158015610432573d5f5f3e3d5ffd5b505050506040513d601f19601f820116820180604052508101906104569190611197565b503373ffffffffffffffffffffffffffffffffffffffff167f96cd817c6329656790ef8fba7675405193677d39619571282f5e21f3a98cd059838360405161049f9291906111c2565b60405180910390a25050565b5f821180156104b957505f81115b6104f8576040517f08c379a00000000000000000000000000000000000000000000000000000000081526004016104ef90611233565b60405180910390fd5b7f000000000000000000000000000000000000000000000000000000000000000073ffffffffffffffffffffffffffffffffffffffff166323b872dd3330856040518463ffffffff1660e01b815260040161055593929190611251565b6020604051808303815f875af1158015610571573d5f5f3e3d5ffd5b505050506040513d601f19601f820116820180604052508101906105959190611197565b507f000000000000000000000000000000000000000000000000000000000000000073ffffffffffffffffffffffffffffffffffffffff166323b872dd3330846040518463ffffffff1660e01b81526004016105f393929190611251565b6020604051808303815f875af115801561060f573d5f5f3e3d5ffd5b505050506040513d601f19601f820116820180604052508101906106339190611197565b508160015f82825461064591906112b3565b925050819055508060025f82825461065d91906112b3565b925050819055503360035f6101000a81548173ffffffffffffffffffffffffffffffffffffffff021916908373ffffffffffffffffffffffffffffffffffffffff1602179055503373ffffffffffffffffffffffffffffffffffffffff167fac1d76749e5447b7b16f5ab61447e1bd502f3bb4807af3b28e620d1700a6ee4583836040516106ec9291906111c2565b60405180910390a25050565b5f5f6001540361070a575f9050610730565b600154670de0b6b3a764000060025461072391906112e6565b61072d9190611354565b90505b90565b5f7f000000000000000000000000000000000000000000000000000000000000000073ffffffffffffffffffffffffffffffffffffffff168373ffffffffffffffffffffffffffffffffffffffff1614806107d957507f000000000000000000000000000000000000000000000000000000000000000073ffffffffffffffffffffffffffffffffffffffff168373ffffffffffffffffffffffffffffffffffffffff16145b610818576040517f08c379a000000000000000000000000000000000000000000000000000000000815260040161080f906113ce565b60405180910390fd5b5f7f000000000000000000000000000000000000000000000000000000000000000073ffffffffffffffffffffffffffffffffffffffff168473ffffffffffffffffffffffffffffffffffffffff161490505f5f8261087c57600254600154610883565b6001546002545b915091505f82148061089457505f81145b8061089e57505f85145b156108ae575f93505050506108f5565b5f6103e5866108bd91906112e6565b9050806103e8846108ce91906112e6565b6108d891906112b3565b82826108e491906112e6565b6108ee9190611354565b9450505050505b92915050565b5f5f821161093e576040517f08c379a000000000000000000000000000000000000000000000000000000000815260040161093590611436565b60405180910390fd5b7f000000000000000000000000000000000000000000000000000000000000000073ffffffffffffffffffffffffffffffffffffffff168373ffffffffffffffffffffffffffffffffffffffff1614806109e357507f000000000000000000000000000000000000000000000000000000000000000073ffffffffffffffffffffffffffffffffffffffff168373ffffffffffffffffffffffffffffffffffffffff16145b610a22576040517f08c379a0000000000000000000000000000000000000000000000000000000008152600401610a19906113ce565b60405180910390fd5b5f7f000000000000000000000000000000000000000000000000000000000000000073ffffffffffffffffffffffffffffffffffffffff168473ffffffffffffffffffffffffffffffffffffffff161490505f5f82610a8657600254600154610a8d565b6001546002545b915091508573ffffffffffffffffffffffffffffffffffffffff166323b872dd3330886040518463ffffffff1660e01b8152600401610ace93929190611251565b6020604051808303815f875af1158015610aea573d5f5f3e3d5ffd5b505050506040513d601f19601f82011682018060405250810190610b0e9190611197565b505f6103e586610b1e91906112e6565b9050806103e884610b2f91906112e6565b610b3991906112b3565b8282610b4591906112e6565b610b4f9190611354565b94505f8511610b93576040517f08c379a0000000000000000000000000000000000000000000000000000000008152600401610b8a9061149e565b60405180910390fd5b8315610c6a578560015f828254610baa91906112b3565b925050819055508460025f828254610bc291906114bc565b925050819055507f000000000000000000000000000000000000000000000000000000000000000073ffffffffffffffffffffffffffffffffffffffff1663a9059cbb33876040518363ffffffff1660e01b8152600401610c2492919061113b565b6020604051808303815f875af1158015610c40573d5f5f3e3d5ffd5b505050506040513d601f19601f82011682018060405250810190610c649190611197565b50610d37565b8560025f828254610c7b91906112b3565b925050819055508460015f828254610c9391906114bc565b925050819055507f000000000000000000000000000000000000000000000000000000000000000073ffffffffffffffffffffffffffffffffffffffff1663a9059cbb33876040518363ffffffff1660e01b8152600401610cf592919061113b565b6020604051808303815f875af1158015610d11573d5f5f3e3d5ffd5b505050506040513d601f19601f82011682018060405250810190610d359190611197565b505b3373ffffffffffffffffffffffffffffffffffffffff167f5380cf97d8f645d3c4896da60c053458dca03a3a31cec642ac80e1ddf0d8d02a888887610d9c577f0000000000000000000000000000000000000000000000000000000000000000610dbe565b7f00000000000000000000000000000000000000000000000000000000000000005b89604051610dcf94939291906114ef565b60405180910390a25050505092915050565b60015481565b5f8054610df39061155f565b80601f0160208091040260200160405190810160405280929190818152602001828054610e1f9061155f565b8015610e6a5780601f10610e4157610100808354040283529160200191610e6a565b820191905f5260205f20905b815481529060010190602001808311610e4d57829003601f168201915b505050505081565b5f73ffffffffffffffffffffffffffffffffffffffff82169050919050565b5f819050919050565b5f610eb4610eaf610eaa84610e72565b610e91565b610e72565b9050919050565b5f610ec582610e9a565b9050919050565b5f610ed682610ebb565b9050919050565b610ee681610ecc565b82525050565b5f602082019050610eff5f830184610edd565b92915050565b5f819050919050565b610f1781610f05565b82525050565b5f602082019050610f305f830184610f0e565b92915050565b5f610f4082610e72565b9050919050565b610f5081610f36565b82525050565b5f602082019050610f695f830184610f47565b92915050565b5f5ffd5b610f7c81610f05565b8114610f86575f5ffd5b50565b5f81359050610f9781610f73565b92915050565b5f5f60408385031215610fb357610fb2610f6f565b5b5f610fc085828601610f89565b9250506020610fd185828601610f89565b9150509250929050565b610fe481610f36565b8114610fee575f5ffd5b50565b5f81359050610fff81610fdb565b92915050565b5f5f6040838503121561101b5761101a610f6f565b5b5f61102885828601610ff1565b925050602061103985828601610f89565b9150509250929050565b5f81519050919050565b5f82825260208201905092915050565b8281835e5f83830152505050565b5f601f19601f8301169050919050565b5f61108582611043565b61108f818561104d565b935061109f81856020860161105d565b6110a88161106b565b840191505092915050565b5f6020820190508181035f8301526110cb818461107b565b905092915050565b7f6e6f742070726f766964657200000000000000000000000000000000000000005f82015250565b5f611107600c8361104d565b9150611112826110d3565b602082019050919050565b5f6020820190508181035f830152611134816110fb565b9050919050565b5f60408201905061114e5f830185610f47565b61115b6020830184610f0e565b9392505050565b5f8115159050919050565b61117681611162565b8114611180575f5ffd5b50565b5f815190506111918161116d565b92915050565b5f602082840312156111ac576111ab610f6f565b5b5f6111b984828501611183565b91505092915050565b5f6040820190506111d55f830185610f0e565b6111e26020830184610f0e565b9392505050565b7f7a65726f20616d6f756e740000000000000000000000000000000000000000005f82015250565b5f61121d600b8361104d565b9150611228826111e9565b602082019050919050565b5f6020820190508181035f83015261124a81611211565b9050919050565b5f6060820190506112645f830186610f47565b6112716020830185610f47565b61127e6040830184610f0e565b949350505050565b7f4e487b71000000000000000000000000000000000000000000000000000000005f52601160045260245ffd5b5f6112bd82610f05565b91506112c883610f05565b92508282019050808211156112e0576112df611286565b5b92915050565b5f6112f082610f05565b91506112fb83610f05565b925082820261130981610f05565b915082820484148315176113205761131f611286565b5b5092915050565b7f4e487b71000000000000000000000000000000000000000000000000000000005f52601260045260245ffd5b5f61135e82610f05565b915061136983610f05565b92508261137957611378611327565b5b828204905092915050565b7f696e76616c696420746f6b656e000000000000000000000000000000000000005f82015250565b5f6113b8600d8361104d565b91506113c382611384565b602082019050919050565b5f6020820190508181035f8301526113e5816113ac565b9050919050565b7f7a65726f20696e707574000000000000000000000000000000000000000000005f82015250565b5f611420600a8361104d565b915061142b826113ec565b602082019050919050565b5f6020820190508181035f83015261144d81611414565b9050919050565b7f696e73756666696369656e74206f7574707574000000000000000000000000005f82015250565b5f61148860138361104d565b915061149382611454565b602082019050919050565b5f6020820190508181035f8301526114b58161147c565b9050919050565b5f6114c682610f05565b91506114d183610f05565b92508282039050818111156114e9576114e8611286565b5b92915050565b5f6080820190506115025f830187610f47565b61150f6020830186610f0e565b61151c6040830185610f47565b6115296060830184610f0e565b95945050505050565b7f4e487b71000000000000000000000000000000000000000000000000000000005f52602260045260245ffd5b5f600282049050600182168061157657607f821691505b60208210810361158957611588611532565b5b5091905056fea2646970667358221220d243300c68895b76721a7592026984e7e7bccd8cf633f304b461a6f0df11700a64736f6c634300081c0033","linkReferences":{}},"methodIdentifiers":{"addLiquidity(uint256,uint256)":"9cd441da","getAmountOut(address,uint256)":"ca706bcf","liquidityProvider()":"5b8bec55","poolName()":"f3466dfa","price()":"a035b1fe","removeLiquidity()":"67b9a286","reserveA()":"dc5fa6c5","reserveB()":"19e36f3b","swap(address,uint256)":"d004f0f7","tokenA()":"0fc63d10","tokenB()":"5f64b55b"},"id":11}